S01D000054726166666963206C6967687420636F6E74726F6C2E73726563EF
S11300000C942A000C9445010C943C000C943C0084
S11300100C943C000C943C000C943C000C943C006C
S11300200C943C000C943C000C943C000C943C005C
S11300300C943C000C943C000C943C000C943C004C
S11300400C943C000C943C000C943C000C943C003C
S11300500C943C0011241FBECFE5D8E0DEBFCDBF19
S113006020E0A0E6B0E001C01D92A336B207E1F79C
S11300700E946D030C94F4060C94000060E081E48B
S11300800E94FA0261E081E40E94FA0262E081E4E3
S11300900E94FA0260E082E40E94FA0261E082E4D3
S11300A00E94FA0262E082E40E94FA0262E084E4BE
S11300B00E94ED020E941503789485B7836085BF82
S11300C08BB780648BBF0895CF93DF9342E650E0F3
S11300D062E084E40E94F40260E081E40E9401038F
S11300E081E090E0909361008093600088E893E160
S11300F00E94170360E081E40E94080361E081E448
S11301000E940F03C2E0D0E0D0936100C09360006E
S113011084EF91E00E94170361E081E40E940F03E1
S113012084EF91E00E94170361E081E40E940F03D1
S113013084EF91E00E94170361E081E40E940F03C1
S113014084EF91E00E94170361E081E40E940F03B1
S113015084EF91E00E94170361E081E40E940F03A1
S113016084EF91E00E94170361E081E40E940F0391
S113017084EF91E00E94170361E081E40E940F0381
S113018084EF91E00E94170361E081E40E940F0371
S113019084EF91E00E94170361E081E40E940F0361
S11301A084EF91E00E94170361E081E40E94080358
S11301B062E081E40E94010383E090E09093610097
S11301C08093600088E893E10E94170362E081E471
S11301D00E94080361E081E40E940F03D093610050
S11301E0C093600084EF91E00E94170361E081E412
S11301F00E940F0384EF91E00E94170361E081E401
S11302000E940F0384EF91E00E94170361E081E4F0
S11302100E940F0384EF91E00E94170361E081E4E0
S11302200E940F0384EF91E00E94170361E081E4D0
S11302300E940F0384EF91E00E94170361E081E4C0
S11302400E940F0384EF91E00E94170361E081E4B0
S11302500E940F0384EF91E00E94170361E081E4A0
S11302600E940F0384EF91E00E94170361E081E490
S11302700E940F0384EF91E00E94170361E081E480
S11302800E940803DF91CF9108951F920F920FB639
S11302900F9211242F933F934F935F936F937F9308
S11302A08F939F93AF93BF93EF93FF9342E650E0F6
S11302B062E084E40E94F40280916200813009F0DB
S11302C07BC188EE93E00E94170342E650E062E0AF
S11302D084E40E94F40280916200813009F46CC1CC
S11302E080916000909161008230910509F4ACC066
S11302F08330910509F448C1019709F05DC162E0BA
S113030082E40E94010388E893E10E94170360E0FD
S113031081E40E94080362E082E40E94080361E031
S113032081E40E940F0361E082E40E940F0384EFE2
S113033091E00E94170361E081E40E940F0361E0F1
S113034082E40E940F0384EF91E00E94170361E0AE
S113035081E40E940F0361E082E40E940F0384EFB2
S113036091E00E94170361E081E40E940F0361E0C1
S113037082E40E940F0384EF91E00E94170361E07E
S113038081E40E940F0361E082E40E940F0384EF82
S113039091E00E94170361E081E40E940F0361E091
S11303A082E40E940F0384EF91E00E94170361E04E
S11303B081E40E940F0361E082E40E940F0384EF52
S11303C091E00E94170361E081E40E940F0361E061
S11303D082E40E940F0384EF91E00E94170361E01E
S11303E081E40E940F0361E082E40E940F0384EF22
S11303F091E00E94170361E081E40E940F0361E031
S113040082E40E940F0384EF91E00E94170361E0ED
S113041081E40E94080361E082E40E94080360E032
S113042082E40E94010362E081E40E94010388E8FF
S113043093E10E94170362E081E40E94080360E0F4
S113044082E40E940803B8C062E082E40E940103CF
S113045060E081E40E94080362E082E40E940803F1
S113046061E081E40E940F0361E082E40E940F03D3
S113047084EF91E00E94170361E081E40E940F037E
S113048061E082E40E940F0384EF91E00E9417036D
S113049061E081E40E940F0361E082E40E940F03A3
S11304A084EF91E00E94170361E081E40E940F034E
S11304B061E082E40E940F0384EF91E00E9417033D
S11304C061E081E40E940F0361E082E40E940F0373
S11304D084EF91E00E94170361E081E40E940F031E
S11304E061E082E40E940F0384EF91E00E9417030D
S11304F061E081E40E940F0361E082E40E940F0343
S113050084EF91E00E94170361E081E40E940F03ED
S113051061E082E40E940F0384EF91E00E941703DC
S113052061E081E40E940F0361E082E40E940F0312
S113053084EF91E00E94170361E081E40E940F03BD
S113054061E082E40E940F0384EF91E00E941703AC
S113055061E081E40E94080361E082E40E940803F0
S113056060E082E40E94010362E081E40E940103EE
S113057088E893E10E94170362E081E40E94080383
S113058060E082E40E94080362E081E40E940103C7
S113059060E082E40E94010388E893E10E9417036B
S11305A062E081E40E94080360E082E40E940803A0
S11305B062E081E40E940103FF91EF91BF91AF914A
S11305C09F918F917F916F915F914F913F912F9167
S11305D00F900FBE0F901F901895982F862F40E014
S11305E0692F0E9472030895982F862F692F0E9405
S11305F0C7040895982F862F41E0692F0E94720343
S11306000895982F862F41E0692F0E94FD030895D5
S1130610982F862F40E0692F0E94FD030895982F9C
S1130620862F692F0E948804089513BE0895CF92DF
S1130630DF92EF92FF92CF93DF93EC01BC0180E055
S113064090E00E9442066B017C012FE632E143E810
S113065052E40E949C0588238CF4A70196016FE65E
S113066072E183E892E40E942F052FE632E143E829
S11306705EE30E94A1050E94130617C0C134D10590
S113068099F02FE632E143E85EE3C701B6010E9428
S1130690A1059B01AC0160E070E080E893E40E9456
S11306A02F050E94130601C060E062BF83B7846017
S11306B083BF80E090E007C008B600FEFDCF28B7F6
S11306C0216028BF01960097B9F313BEDF91CF9143
S11306D0FF90EF90DF90CF9008950E943E000E941B
S11306E06400FDCF623459F118F4613441F0089587
S11306F0633409F444C0643409F460C008954111BA
S11307000EC04AB321E030E0B90102C0660F771F82
S11307108A95E2F7CB01809584238ABB0895413002
S113072009F06AC04AB321E030E0B90102C0660FA3
S1130730771F8A95E2F7CB01842B8ABB0895411178
S11307400EC047B321E030E0B90102C0660F771F45
S11307508A95E2F7CB018095842387BB08954130C5
S113076009F04AC047B321E030E0B90102C0660F86
S1130770771F8A95E2F7CB01842B87BB089541113B
S11307800EC044B321E030E0B90102C0660F771F08
S11307908A95E2F7CB018095842384BB0895413088
S11307A059F544B321E030E0B90102C0660F771F68
S11307B08A95E2F7CB01842B84BB089541110EC0C6
S11307C041B321E030E0B90102C0660F771F8A957A
S11307D0E2F7CB018095842381BB0895413061F415
S11307E041B321E030E0B90102C0660F771F8A955A
S11307F0E2F7CB01842B81BB0895623459F118F4DC
S1130800613441F00895633409F444C0643409F454
S113081060C0089541110EC04BB321E030E0B9012E
S113082002C0660F771F8A95E2F7CB018095842377
S11308308BBB0895413009F06AC04BB321E030E02E
S1130840B90102C0660F771F8A95E2F7CB01842BAA
S11308508BBB089541110EC048B321E030E0B901CB
S113086002C0660F771F8A95E2F7CB018095842337
S113087088BB0895413009F04AC048B321E030E014
S1130880B90102C0660F771F8A95E2F7CB01842B6A
S113089088BB089541110EC045B321E030E0B90191
S11308A002C0660F771F8A95E2F7CB0180958423F7
S11308B085BB0895413059F545B321E030E0B901D5
S11308C002C0660F771F8A95E2F7CB01842B85BBA4
S11308D0089541110EC042B321E030E0B90102C0D5
S11308E0660F771F8A95E2F7CB018095842382BB3C
S11308F00895413061F442B321E030E0B90102C00F
S1130900660F771F8A95E2F7CB01842B82BB08958B
S11309106234B1F018F4613431F008956334E9F0CD
S1130920643441F108954BB321E030E0B90102C0D1
S1130930660F771F8A95E2F7CB0184278BBB089556
S113094048B321E030E0B90102C0660F771F8A95F1
S1130950E2F7CB01842788BB089545B321E030E05A
S1130960B90102C0660F771F8A95E2F7CB0184278D
S113097085BB089542B321E030E0B90102C0660F9F
S1130980771F8A95E2F7CB01842782BB08956234EE
S113099009F118F4613439F00895633491F1643441
S11309A009F446C0089599B321E030E0B901082E56
S11309B002C0660F771F0A94E2F7292F30E026233E
S11309C03723B90102C0759567958A95E2F7FA0154
S11309D06083089596B321E030E0B901082E02C087
S11309E0660F771F0A94E2F7292F30E02623372376
S11309F0B90102C0759567958A95E2F7FA0160839B
S1130A00089593B321E030E0B901082E02C0660FC7
S1130A10771F0A94E2F7292F30E026233723B90100
S1130A2002C0759567958A95E2F7FA016083089587
S1130A3090B321E030E0B901082E02C0660F771FA1
S1130A400A94E2F7292F30E026233723B90102C0A4
S1130A50759567958A95E2F7FA0160830895505871
S1130A60BB27AA270E9447050C94BA060E94AC062D
S1130A7038F00E94B30620F039F49F3F19F426F4AD
S1130A800C94A9060EF4E095E7FB0C94A306E92F59
S1130A900E94CB0658F3BA176207730784079507B9
S1130AA020F079F4A6F50C94ED060EF4E0950B2EE7
S1130AB0BA2FA02D0B01B90190010C01CA01A001AC
S1130AC01124FF27591B99F0593F50F4503E68F107
S1130AD01A16F040A22F232F342F4427585FF3CF48
S1130AE0469537952795A795F0405395C9F77EF419
S1130AF01F16BA0B620B730B840BBAF09150A1F062
S1130B00FF0FBB1F661F771F881FC2F70EC0BA0FE7
S1130B10621F731F841F48F4879577956795B7956F
S1130B20F7959E3F08F0B0CF9395880F08F099276A
S1130B30EE0F9795879508950E947F0608F481E04B
S1130B4008950E94B5050C94BA060E94B30658F0A5
S1130B500E94AC0640F029F45F3F29F00C94A306F0
S1130B6051110C94EE060C94A9060E94CB0668F36E
S1130B709923B1F3552391F3951B550BBB27AA2752
S1130B8062177307840738F09F5F5F4F220F331F8C
S1130B90441FAA1FA9F335D00E2E3AF0E0E832D054
S1130BA091505040E695001CCAF72BD0FE2F29D057
S1130BB0660F771F881FBB1F261737074807AB0729
S1130BC0B0E809F0BB0B802DBF01FF2793585F4F9E
S1130BD03AF09E3F510578F00C94A3060C94EE066F
S1130BE05F3FE4F3983ED4F3869577956795B79580
S1130BF0F7959F5FC9F7880F911D9695879597F98B
S1130C000895E1E0660F771F881FBB1F6217730703
S1130C108407BA0720F0621B730B840BBA0BEE1F18
S1130C2088F7E09508950E94D30688F09F5798F0BE
S1130C30B92F9927B751B0F0E1F0660F771F881FDD
S1130C40991F1AF0BA95C9F714C0B13091F00E94F7
S1130C50ED06B1E008950C94ED06672F782F8827F0
S1130C60B85F39F0B93FCCF3869577956795B3951E
S1130C70D9F73EF490958095709561957F4F8F4F8D
S1130C809F4F0895E89409C097FB3EF49095809592
S1130C90709561957F4F8F4F9F4F9923A9F0F92F3E
S1130CA096E9BB279395F695879577956795B795BC
S1130CB0F111F8CFFAF4BB0F11F460FF1BC06F5FA2
S1130CC07F4F8F4F9F4F16C0882311F096E911C0B4
S1130CD0772321F09EE8872F762F05C0662371F0D5
S1130CE096E8862F70E060E02AF09A95660F771FE9
S1130CF0881FDAF7880F9695879597F90895990FC5
S1130D000008550FAA0BE0E8FEEF16161706E807D1
S1130D10F907C0F012161306E407F50798F0621BF2
S1130D20730B840B950B39F40A2661F0232B242BC7
S1130D30252B21F408950A2609F4A140A6958FEFE6
S1130D40811D811D089597F99F6780E870E060E038
S1130D5008959FEF80EC089500240A941616170650
S1130D6018060906089500240A9412161306140698
S1130D7005060895092E0394000C11F4882352F0FB
S1130D80BB0F40F4BF2B11F460FF04C06F5F7F4FB3
S1130D908F4F9F4F089557FD9058440F551F59F09A
S1130DA05F3F71F04795880F97FB991F61F09F3F54
S1130DB079F087950895121613061406551FF2CF7D
S1130DC04695F1DF08C0161617061806991FF1CFCD
S1130DD086957105610508940895E894BB276627F4
S10F0DE07727CB0197F90895F894FFCF12
S9030000FC
